:020000041000EA
:1000000000B5324B212058609868022188439860DF
:10001000D860186158612E4B002199600221596106
:100020000121F02299502B49196001219960352056
:1000300000F044F80222904214D00621196600F024
:1000400034F8196E01211966002018661A6600F04E
:100050002CF8196E196E196E052000F02FF8012189
:100060000842F9D1002199601B49196000215960AB
:100070001A491B48016001219960EB211966A021F2
:10008000196600F012F800219960164914480160C1
:100090000121996001BC002800D000471248134993
:1000A000086003C880F30888084703B5996A0420EC
:1000B0000142FBD001200142F8D103BD02B5186610
:1000C0001866FFF7F2FF186E186E02BD00000240BE
:1000D000000000180000070000035F00212200005C
:1000E000F4000018222000A00001001008ED00E03C
:1000F00000000000000000000000000074B24E7A12
:1001000000000420E3010010C3010010E903001007
:10011000C1010010C1010010C1010010C101001097
:10012000C1010010C1010010C10100104503001001
:10013000C1010010C1010010C9030010D503001057
:10014000CD010010CD010010CD010010CD01001037
:10015000CD010010CD010010CD010010CD01001027
:10016000CD010010CD010010CD010010CD01001017
:10017000CD010010CD010010CD010010CD01001007
:10018000CD010010CD010010CD010010CD010010F7
:10019000CD010010CD010010CD010010CD010010E7
:1001A000CD010010CD010010CD010010CD010010D7
:1001B000CD010010CD010010CD010010CD010010C7
:1001C00000BE00BE00BE00BE00BE00BE00F03FF894
:1001D000103800BE00202049086006C881F3088856
:1001E00010471E48006800282DD10CA40ECC002911
:1001F00002D000F010F8F9E719491A4A002000E08F
:1002000001C19142FCD1184988471849884700BE6E
:10021000FDE701C901C29A42FBD370471CA8011037
:10022000C000002044100020ACB7011000000420E2
:1002300000000420ACB701100010042000100420BE
:100240000000000070470A480FF086FB0047EFF3FC
:100250000580C0B27047000008ED00E0000000D04B
:1002600050100020D4AB0020CD020010FDD30010B0
:1002700057560000F8B5C046F8BC08BC9E4670470B
:10028000F8B5C04610B5064C2378002B07D1054BB6
:10029000002B02D0044800E000BF0123237010BDF2
:1002A000A01500200000000084020010044B10B5CF
:1002B000002B03D00349044800E000BF10BDC04636
:1002C00000000000A415002084020010164B002B33
:1002D00000D1144B9D46402292029A1A9246002168
:1002E0008B460F461348144A121A11F0DFFB0F4BCE
:1002F000002B00D098470E4B002B00D098470020D1
:10030000002104000D000D48002802D00C480DF01B
:1003100078F810F04DFF2000290009F045FA0DF0A3
:100320006DF8C04600000800000004200000000036
:100330000997001050100020D4AB002003D4001007
:10034000000000007046C0082CD3EFF309808169DB
:1003500002390978002929D101B50FC8B8470CBC6A
:1003600003C29E461E4B06CB91421ED0083B1A602C
:10037000002909D0EFF3098020388863F0C0444693
:100380004D4656465F46F0C0906B1030F0C8A04610
:10039000A946B246BB4680F309882038F0C802203F
:1003A000C0430047EFF30880D1E770470D4A136858
:1003B0009942FAD801B5890053589C460FC8E047C6
:1003C0000CBC10609E46704701B508F063FC03BC8E
:1003D0008E46C7E701B508F01BFC03BC8E46C1E79B
:1003E0006404002090810110102304E0202302E027
:1003F000302300E040239C46F0B404AE7546E80884
:1004000001D3EFF309860E4F0FCE0FC70FBC0FC7F6
:100410004046494652465B460FC71DCE3100A60AEC
:1004200000D304316E0900D248311FC7EFF30980B1
:100430006946EFF3148663C7604601490CF07AFB06
:1004400044AB002001480421014B184760060020FE
:1004500069F9001002B4714649084900095649007B
:100460008E4402BC7047C04602B471464908490038
:10047000095C49008E4402BC7047C0460022430814
:100480008B4274D303098B425FD3030A8B4244D35C
:10049000030B8B4228D3030C8B420DD3FF2209029E
:1004A00012BA030C8B4202D31212090265D0030B5D
:1004B0008B4219D300E0090AC30B8B4201D3CB0353
:1004C000C01A5241830B8B4201D38B03C01A524195
:1004D000430B8B4201D34B03C01A5241030B8B4297
:1004E00001D30B03C01A5241C30A8B4201D3CB0282
:1004F000C01A5241830A8B4201D38B02C01A524167
:10050000430A8B4201D34B02C01A5241030A8B4269
:1005100001D30B02C01A5241CDD2C3098B4201D381
:10052000CB01C01A524183098B4201D38B01C01AFF
:10053000524143098B4201D34B01C01A5241030976
:100540008B4201D30B01C01A5241C3088B4201D325
:10055000CB00C01A524183088B4201D38B00C01AD2
:10056000524143088B4201D34B00C01A5241411AF9
:1005700000D20146524110467047FFE701B5002006
:1005800000F0F0F802BDC0460029F7D076E77047CA
:1005900003460B437FD4002243088B4274D30309E4
:1005A0008B425FD3030A8B4244D3030B8B4228D385
:1005B000030C8B420DD3FF22090212BA030C8B42AB
:1005C00002D31212090265D0030B8B4219D300E04B
:1005D000090AC30B8B4201D3CB03C01A5241830BD0
:1005E0008B4201D38B03C01A5241430B8B4201D380
:1005F0004B03C01A5241030B8B4201D30B03C01AA9
:100600005241C30A8B4201D3CB02C01A5241830A22
:100610008B4201D38B02C01A5241430A8B4201D351
:100620004B02C01A5241030A8B4201D30B02C01A7B
:100630005241CDD2C3098B4201D3CB01C01A5241E2
:1006400083098B4201D38B01C01A524143098B426B
:1006500001D34B01C01A524103098B4201D30B0154
:10066000C01A5241C3088B4201D3CB00C01A524179
:1006700083088B4201D38B00C01A524143088B423E
:1006800001D34B00C01A5241411A00D201465241D7
:10069000104670475DE0CA0F00D04942031000D3F6
:1006A0004042534000229C4603098B422DD3030A4B
:1006B0008B4212D3FC22890112BA030A8B420CD35B
:1006C000890192118B4208D3890192118B4204D384
:1006D00089013AD0921100E08909C3098B4201D304
:1006E000CB01C01A524183098B4201D38B01C01A3E
:1006F000524143098B4201D34B01C01A52410309B5
:100700008B4201D30B01C01A5241C3088B4201D363
:10071000CB00C01A524183088B4201D38B00C01A10
:100720005241D9D243088B4201D34B00C01A5241E7
:10073000411A00D20146634652415B10104601D374
:100740004042002B00D54942704763465B1000D3FE
:10075000404201B5002000F005F802BD0029F8D0A4
:1007600016E770477047C046D0400B1CD1409C46EE
:10077000203AD3401843524263469340184370478F
:100780009140031C90409C46203A934019435242AA
:100790006346D340194370478446101C62468C461A
:1007A000191C634600E0C0461FB501F031FF002868
:1007B00001D40021C8421FBD10B501F089FE40429E
:1007C000013010BD10B501F023FF002801DB00202F
:1007D00010BD012010BDC04610B501F019FF002862
:1007E00001DD002010BD012010BDC04610B501F094
:1007F000ABFE002801DC002010BD012010BDC0466A
:1008000010B501F0A1FE002801DA002010BD012082
:1008100010BDC0468446081C6146FFE71FB500F0C6
:10082000DDFC002801D40021C8421FBD10B500F036
:100830005FFC4042013010BD10B500F0CFFC002835
:1008400001DB002010BD012010BDC04610B500F036
:10085000C5FC002801DD002010BD012010BDC046F0
:1008600010B500F06DFC002801DC002010BD012057
:1008700010BDC04610B500F063FC002801DA00206E
:1008800010BD012010BDC0461C2101231B0498424D
:1008900001D3000C10391B0A984201D3000A083911
:1008A0001B09984201D30009043902A2105C4018C8
:1008B0007047C0460403020201010101000000006C
:1008C00000000000002B15D1002A13D1002906DBFF
:1008D00001DC002806D00020C043410802E080214E
:1008E0000906002007B4024801A14018029003BD88
:1008F00075FEFFFF03B4684601B5029800F030F9B9
:10090000019B9E4602B00CBC7047C046002B11D123
:10091000002A0FD1002900D1002802D00021C943AC
:10092000081C07B4024802A14018029003BDC0464B
:1009300035FEFFFF03B4684601B5029800F04EF89B
:10094000019B9E4602B00CBC7047C046F0B5CE4637
:10095000474615042D0C2E0080B50704140C3F0CDF
:100960009946030C7E435D43674363437F19340C10
:10097000E4199C46A54203D980235B029846C444EF
:100980004B4643435143250C36046544360C24043E
:10099000A4195B19591820000CBC90469946F0BD6B
:1009A00070B500220C4B04000D00FFF729FF002852
:1009B00004D12000290002F069FC70BD064B002222
:1009C0002000290002F0FEF802F060FC80231B06E4
:1009D0009C466044F1E7C0460000E041F0B54F4658
:1009E0004646D646C0B5040082B00D0091469846F2
:1009F0008B422FD82CD04146484602F0BFFD29003B
:100A00000600200002F0BAFD331A9C46203B9A46AD
:100A100000D576E04B46524693401F004B46624657
:100A200093401E00AF4228D825D05346A41BBD4199
:100A3000002B00DA7BE000220023009201930123C7
:100A4000524693400193012362469340009318E07D
:100A50008242D0D900220023009201930A9B002BEE
:100A600001D01C605D600098019902B01CBC9046EA
:100A70009946A246F0BDA342D7D900220023009296
:100A800001936346002BE9D0FB0798464146720864
:100A90000A437B0866460EE0AB4201D1A2420CD865
:100AA000A41A9D41012024196D410021013E241802
:100AB0004D41002E06D0AB42EED9013E24196D41C6
:100AC000002EF8D100980199534600196941002B76
:100AD00023DB2B005246D3402A006446E2401C0030
:100AE00053461500002B2DDB26005746BE40330031
:100AF00026006746BE403200801A9941009001915D
:100B0000ACE7624620239B1A4A46DA40614613004E
:100B100042468A4017001F4380E7624620239B1A03
:100B20002A0066469A402300F3401343D4E7624606
:100B3000202300219B1A0022009101920122DA4019
:100B4000019280E72023624626009B1ADE402F0098
:100B5000B0466646B74046463B003343C8E7C0460A
:100B6000F0B583B016001F000090019102F012FD55
:100B700004000D0002000B0030003900FFF7E6FE14
:100B8000009A019B121A8B41089920000A604B6061
:100B9000290003B0F0BDC046F8B54746CE46430233
:100BA0005B0A4400C20F9C464800DD004B02240E45
:100BB0005B0A000E80B5984626009146C90FDB00FF
:100BC000271A8A4229D0002F15DD00284AD1002B90
:100BD00000D095E0ED08FF2C00D188E06B025B0AA5
:100BE000E6B25B02F605580A3043D20710430CBC4C
:100BF00090469946F8BD002F00D087E0601CC0B237
:100C0000012800DCB6E0EE1A720100D5C5E0002E26
:100C10003DD1002200260023E3E7002F00DC96E010
:100C200000285DD0FF2C60D08022D20413431B2FFC
:100C300000DDECE02022D21B18009340F8405A1E41
:100C400093410343ED186B017BD50134FF2C00D198
:100C5000B7E0012207262A406B089A4D1D40154334
:100C60002E4029E0FF2CB5D08022D20413431B2F45
:100C700000DDB2E02022D21B19009340F9405A1E39
:100C800093410B43ED1A6B015BD5AD01AE0930000A
:100C9000FFF7FAFD05388640844265DC041B33000B
:100CA00020200134E340041BA640751EAE413343AF
:100CB00007261D0000241E4001224B461A40002E2C
:100CC00004D00F232B40042B00D004356B0100D43B
:100CD00080E70134E6B2FF2C2FD1FF26002380E706
:100CE000002B52D1FF2C00D074E70A00ED08002D34
:100CF000F3D08023DB032B435B025B0AFF2670E704
:100D0000013F002FBED0FF2CB1D163E7002C47D0AC
:100D1000FF2869D08024E4047A4225431B2A00DDA1
:100D2000C5E02C002026D440B21A95406A1E954199
:100D300025435D1B04008946A5E7AB015B0A50E72C
:100D4000002401224B461A406B07BAD142E7002F1C
:100D50003BD10134E0B201284ADDFF2CBDD007268B
:100D6000ED186D082E40A7E70723574D241A35408C
:100D70001E40A1E7002C1BD1002D6ED1002B00D10D
:100D80009AE00A001D003C0024E7013F002F00D13B
:100D900058E7FF2C00D04AE7A7E75E1B894676E7B5
:100DA000002D1CD10A00FF281FD004001D0011E7F0
:100DB000002D5DD1002B17D180230022DB03FF26FD
:100DC0000FE70A00FF2600230BE7002C21D1002D9E
:100DD00066D1FF28E9D11D0087E7012352E77A1C7D
:100DE000A7D0FA43FF2899D10A001D00FF24F1E69D
:100DF000002E21D1002D4FD0002B4CD0ED186B01CF
:100E00009ED5314B07362E4001241D4054E7012367
:100E100018E7FF28DFD08024E4047F4225431B2FFE
:100E20004DDC2026F61B2C00B540FC406A1E954187
:100E30002543ED18040006E7002DCCD0002B00D18F
:100E400053E780216046C903084203D04046084268
:100E500000D11D000121114047E7002B00D1B9E668
:100E6000EA1A500125D507265D1B2E40894623E747
:100E7000FF24002B00D1ADE680226046D203104251
:100E800004D04046104201D11D00894601224B4644
:100E9000FF241A409EE62B00DD080A0000249DE690
:100EA0007A1CC6D0FF43FF28B9D11D001DE70125DC
:100EB0003FE7151E00D044E70022002391E60125FC
:100EC000B7E7C046FFFFFF7DFFFFFFFBF8B55746C2
:100ED0004E464546DE464402E0B546008846640A72
:100EE000360EC70F002E63D0FF2E24D08023E400DF
:100EF000DB041C43002399469B467F3E4346424603
:100F00005D02D20F5B006D0A1B0E9046924665D0C3
:100F1000FF2B55D080220021ED00D2047F3B1543EA
:100F2000F61A43464A467B400F2A00D98DE06D48A9
:100F3000920082589746002C54D108239946063BCC
:100F4000FF269B46DAE70025534602291BD00329DA
:100F500000D1BFE0012928D030007F30002820DDFB
:100F60006A0704D00F222A40042A00D004352A013F
:100F700003D530005C4A80301540FE2803DCAC010C
:100F8000640AC2B201E0FF2200246402D205600AB2
:100F9000DB07104318433CBC90469946A246AB463B
:100FA000F8BD0122101A1B287CDD00220024ECE78A
:100FB000002C1DD104239946033B00269B469DE748
:100FC000FF3E002D20D1022143464A467B400A4382
:100FD0000F2AD8D84548920082589746002D19D13B
:100FE0000121F1E70C239946093BFF269B4685E743
:100FF0002000FFF749FC7626431F9C4000237642E1
:10100000361A99469B4679E74A4603231A43914686
:10101000032186E72800FFF737FC431F36189D4061
:10102000763600217DE780240023E403FF22ACE72D
:1010300000258023DB031C4228D01D4226D12B43F0
:101040005C02640A4346FF229FE762016C01A242F0
:1010500024D21B210025013E012710006D00520003
:10106000002801DB944201D8121B3D4301390029BD
:10107000F3D11400621E944125436DE7BA465946E8
:1010800025005346022900D061E77CE78023DB037B
:101090001C436402640A3B00FF2276E7121B1A21FC
:1010A0000125D9E79E362A00B5402C00C240651EB6
:1010B000AC411443620704D00F222240042A00D01E
:1010C0000434620103D4A401640A00225DE7012212
:1010D00000245AE78024E4032C436402640AFF22BC
:1010E00053E7C046F86C0110FFFFFFF7386D0110A1
:1010F00070B542004E024C0045026D0A120EC30F3D
:10110000760A240EC90FFF2A0FD0FF2C11D0012020
:10111000A24200D070BDB542FCD18B420DD0002A56
:10112000F8D12800451EA841F4E70120002DF1D197
:10113000EBE70120002EEDD1E9E70020EAE7C04609
:1011400070B54A004E02450244006D0A240EC30FDA
:10115000760A120EC90FFF2C15D0FF2A0ED0002CD4
:1011600015D1002A01D1002E1CD0002D14D08B42A5
:1011700027D00220013B1840013870BD002EEED070
:1011800002204042F9E7002DFAD1FF2A0ED0002AB2
:101190000ED1002EEDD00BE0012301399943080058
:1011A0000130EAE70020002DE7D0E2E7002EE7D18A
:1011B0008B42DED1944205DD0221581E08400138E1
:1011C000DBE70024A24204DCB542D2D80020B542BD
:1011D000D3D2581E012398430130CEE730B54200E8
:1011E00044024D02C30F4800640A120E6D0A000E3D
:1011F000C90FFF2A12D0FF280CD0002A12D10028D4
:1012000019D1002D17D1002C2BD00220013B184002
:10121000013826E0002DF0D0022022E0002CFBD186
:10122000FF281FD000281FD1002D1DD10220013B17
:101230001840013815E0002C0ED08B42E5D1002279
:10124000904204DCAC42E0D80020AC4209D2581EE7
:1012500001239843013004E0012301399943080038
:10126000013030BD002DD7D18B42CED18242E7DD97
:101270000221581E08400138F3E7C046F0B54E463B
:1012800057464546DE46E0B543025B0A450083B05B
:101290000F1C99462D0EC60F002D57D0FF2D24D0C0
:1012A0008020DB00C0041843002381469A469B46F9
:1012B0007F3D7C027A00FB0F640A120E984623D011
:1012C000FF2A4BD0E30080240020E4047F3A1C4333
:1012D000AD186B1C47460193534677403A000F2BDD
:1012E00048D87D499B00CB589F46002B00D085E015
:1012F00008339A46063B9B467C027A00FB0FFF258B
:10130000640A120E9846DBD1002C00D090E05246C1
:1013100001231A4392460120DBE74C46584617004A
:10132000022824D0032800D1CFE000220023012886
:101330004DD15802D205400AFF071043384303B08D
:101340003CBC90469946A246AB46F0BD002B5BD113
:1013500004239A46033B00259B46AAE7FF35002C51
:1013600060D1524602231A4392460220B1E7FF227F
:101370000023DEE74B461B0C9C464B462604360CEE
:10138000180461463300220C6446000C43434E436C
:101390005043544380191A0C1218964203D98021E5
:1013A00049028C4664441B041B0C1004C0188301C2
:1013B0005E1EB341800E1843130C1B199B0103439F
:1013C0001C00230179D5012362081C401443019AB3
:1013D0007F32002A4DDD630704D00F232340042B06
:1013E00000D00434230103D53C4B019A1C408032C9
:1013F000FE2ABCDCA3015B0AD2B29AE70C239A4610
:10140000093BFF259B4654E71800FFF73DFA4A4683
:10141000431F76259A4000236D4291462D1A9A4625
:101420009B4646E7524603231A439246032050E761
:101430002000FFF729FA431F2D1A9C40763D00201B
:1014400047E780230027DB03FF2272E7424666E777
:101450004C463200584662E780234A46DB031A4274
:1014600022D01C4220D123435B025B0A4746FF2265
:101470005FE701239A1A1B2A21DC23000199D3403C
:101480009E318C401A0023005C1EA34113435A076F
:1014900004D00F221A40042A00D004335A0111D478
:1014A0009B015B0A002244E780234A46DB03134387
:1014B0005B025B0A3700FF223BE7019587E70022CA
:1014C000002336E70122002333E78023DB03234395
:1014D0005B025B0AFF222CE7786D0110FFFFFFF72C
:1014E000F8B54746CE464400C20F80B547024802D1
:1014F000400A8446664648007F0A240EF60025000E
:101500009046FB00000EC90FB146FF2800D185E0D0
:1015100001267140261A914257D0002E43DD002843
:1015200000D07FE04946002900D1AAE0013E002E0C
:1015300000D0F7E05B1A5A0100D48BE09B019C09B4
:101540002000FFF7A1F905388440854200DDD3E093
:10155000451B230020200135EB40451BAC40621E9B
:1015600094412343072400251C40012241460A40A0
:10157000002C04D00F211940042900D00433590154
:1015800000D480E00135ECB2FF2D00D0A3E0FF24B1
:1015900000235B02E405580AD207204310430CBC29
:1015A00090469946F8BD002E74D1601CC0B2012847
:1015B00000DCA7E04A469C1A620100D5B6E0002C88
:1015C000BED1002200240023E3E7002E00DC85E0EA
:1015D000002846D0FF2C49D080224846D204104330
:1015E000814601221B2E09DC20204C46801B8440B2
:1015F0004A462000F240441EA04102439B185A0173
:1016000028D50135FF2D00D1A8E0012207249449F7
:101610001A405B080B4013431C40A6E7002E00D085
:1016200078E775E7FF2C54D080224946D204114355
:10163000894601221B2E09DC20214846891B88404F
:101640004A460100F240481E81410A439B1A5A0152
:1016500000D573E7012241460A40590700D089E7C7
:1016600011E04846002858D1FF2C0CD1DB08002B94
:1016700000D18CE78020C00303435B025B0AFF2498
:1016800087E7FF2C25D0DB08FF2DF0D05B025B0A3B
:10169000ECB27EE7002C4DD0FF2818D08024E40463
:1016A000724223431B2A00DDC4E01C002025D440E5
:1016B000AA1A93405A1E934123434A460500D31A5F
:1016C000884638E7721CF8D0F243FF28EAD10A00B6
:1016D0004B46FF25D7E79B015B0A5AE7002E41D115
:1016E000651CE9B2012945DDFF2D00D14FE7072434
:1016F0004B445B081C4038E707225A4B2D1A234005
:10170000144032E7002C1DD1002B7AD14B46002B20
:1017100000D191E00A000025B5E7013E002E19D165
:101720004B446CE7FF2C84D1FF25ACE74A46884642
:10173000D41A05E7002BC5D10A00FF28C8D0050040
:101740004B46A0E7002B49D14B46002B77D00A002F
:10175000FF2598E7FF2C00D043E787E70A00FF2426
:10176000002316E7002C15D1002B57D1FF28E6D116
:101770004B467BE7002C20D1002B57D0494600294F
:1017800053D04B445A0168D50724364A1C400125E2
:101790001340EAE6FF28EBD08022D20476421343BE
:1017A0001B2E53DC2025AD1B1A00AB40F2405C1E03
:1017B000A34113434B44050021E7002BD8D04946F1
:1017C000002900D152E78021C9030F4200D14DE723
:1017D0006046084200D049E74B4647E74846FF25A8
:1017E000002800D14FE78022D203174204D0604680
:1017F000104201D14B46884601224146FF250A404E
:1018000041E7484600281FD01A1A500120D54A4601
:101810000724D31A1C4088460025A6E6741CC9D0AC
:10182000F643FF28BCD14B4620E799464B4600259E
:10183000DB082BE7012340E700220023A9E68023F1
:101840000022DB03FF24A4E600251CE70123B1E707
:10185000002AF1D013000025FCE60025FAE6C04678
:10186000FFFFFF7DFFFFFFFB42024B0240004900EC
:10187000520A5B0A090E000EFF2806D00020FF293D
:1018800002D11800431E98417047FE38002AFBD150
:10189000F4E7C046F0B54F464646D6460C0009036D
:1018A000C0B5490A470F5E0039431F03DB0F9C4652
:1018B00065007B0A570F1F436D0DE40F760DA1469F
:1018C000C000B846D200AB1B64457BD0002B5FDD67
:1018D000002E00D0A4E03E00164300D112E15E1EAF
:1018E000002E00D09EE1871A4346B8428041012570
:1018F000C91A4042091A0B0200D431E149024E0ACA
:10190000002E00D16EE13000FEF7BEFF0300083B61
:101910001F2B00DD61E120223900D21A9E40D14008
:101920009F400E439D4200DD51E15D1B6B1C1F2B50
:1019300000DD7CE12021C91A3D0030008F40884045
:10194000DD40791E8F41310007222843D940002510
:1019500007433A40002A09D00F233B40042B05D00F
:101960003B1DBB42BF417F42C9191F000B0200D47F
:1019700026E26A1CC64B55056D0D9A4200D106E160
:10198000C44AFF080A40530752023B43120B8EE041
:10199000002B00D0B8E06B1C5B055B0D012B00DC5D
:1019A00030E1871A4346B842B641CB1A76429E1BB5
:1019B000330200D54CE13B003343A1D10022002487
:1019C000002570E0002B00DCE5E0002E00D183E074
:1019D000AF4EB54260D0802636043743B846382B28
:1019E00000DC3EE1434613431F007A1E97413F1837
:1019F00087428041404209180B0200D4B0E0A44B5A
:101A000001359D4200D1C3E0A24A7B080A40012172
:101A10000F401F435108D30707221F433A4099E75D
:101A20009B4EB54238D0802636043743B846382B13
:101A300000DDDCE01F2B00DC30E11E004746203ECD
:101A4000F740BC46202B04D04026F31A46469E4061
:101A50003243170063467A1E97411F43CCE0002BA8
:101A600000D104E24346134300D159E14B07C008BB
:101A700018438023C9081B03194208D04546ED08C6
:101A80001D4204D14346D008590708432900420F9C
:101A9000C9007F4D1143C0004B07CA087C49C008EC
:101AA00003438D4268D012036D05120B6D0D0021AA
:101AB00012031800130B0A0D12051A43764B2D055D
:101AC00013402B435B00E4075B08234319001CBC55
:101AD00090469946A246F0BD3E00164312D05E1EC7
:101AE000002E00D000E187188742804141444042E7
:101AF000091801250B0233D5022585E7644633001A
:101B0000414610001D00C7E7002D00D0DAE00C00B0
:101B10000443F3D05C1C00D19FE15D4CA64200D190
:101B20002FE1DB43382B00DD66E11F2B00DD83E175
:101B300020240500E41A0F00DD40D940A0404346B0
:101B4000A7405B1A441EA04198462F433843171AFA
:101B5000BA42924143465242991A64463500CAE657
:101B600007223A40002A00D0F6E64B07CA08484947
:101B7000FF083B438D4296D11900114300D19EE1ED
:101B8000802109030A431203120B414D8FE7150010
:101B9000002200238BE7002B00D0C7E06B1C5F0501
:101BA0007F0D012F00DCF1E0394DAB4200D1B9E0EF
:101BB00085180A008542894142444942511807224A
:101BC000CF076D082F4349083A401D00C2E607229F
:101BD0003049ED1A31403A40BCE63E002838864094
:101BE00000279FE63800FEF74FFE20308EE6434682
:101BF00013431F007A1E9741C71BB84280414042E1
:101C0000091A78E60E003B0006431343002D61D10C
:101C1000002E00D0F4E0002B00D11BE16446390017
:101C2000100039E71A4FBB427AD03300FFE630008C
:101C30001F3DE840202B03D04021CB1A9E40374364
:101C40007B1E9F41072207433A400021002589E778
:101C5000171A4346BA42B641591A76428E1B644659
:101C60004EE61F2B00DDADE020264746F61AB740B2
:101C7000B9461700B246DF404E463E43370056464F
:101C8000B240561EB24117434246DA408918AEE6CA
:101C9000FF070000FFFF7FFFFFFF0F802026474662
:101CA000F61AB740B9461700B246DF404E463E43EB
:101CB00037005646B240561EB24117434246DA40FC
:101CC000891A99E77F4CA6425BD0802424045B42AA
:101CD000214327E7002E0CD1002B00D1CBE0644636
:101CE00039001000774DD7E6764FBB4218D033004D
:101CF00075E6002B14D04B07C00818438023C90891
:101D00001B03194207D0FC081C4204D17907D008F4
:101D10000843E14621004C46420FC9001143C00070
:101D2000684DB9E61D0000220023C0E6002D5BD1FE
:101D30000D00054300D1E2E65D1C00D1B0E0614D2D
:101D4000AE421FD0DB43382B71DC1F2B00DD96E049
:101D500020250F00ED1AAF40B9460700AA46DF4024
:101D60004D463D432F005546A840D940451EA84149
:101D700088440743BF18974292415142414435007D
:101D80003AE6644635004146100085E60B00034301
:101D9000002D00D063E6002BF5D04346134300D15D
:101DA0007AE6871887428041072241444042091859
:101DB0003A400B0200D4D5E6434B01351940C9E542
:101DC000380069E61E004746203EF740BC46202BFF
:101DD00004D04026F31A46469E403243170063461D
:101DE0007A1E97411F4302E6364DAE42CAD0802587
:101DF0002D045B422943A6E70843411E8841A6E61D
:101E0000002B00D148E6871A4346B842B641CB1AA8
:101E100076429E1B33024BD5171A4346BA42924173
:101E2000591A5242891A072264463A4092E5014300
:101E30000F00791E8F419DE71C000F00203CE740FA
:101E4000202B03D04024E31A99400843411E8841C7
:101E500038437CE60022002425E6171A4346BA429E
:101E60009241591A5242891A6446350043E5414667
:101E70001000144D10E680220024120380E61D009D
:101E80000F00203DEF40BC46202B03D04025EB1A2D
:101E90009940084307006346781E87411F4369E75E
:101EA000871897429B4141445B42C9183500A3E51E
:101EB0003B003343CED0072231003A4052E60023A4
:101EC0001A00F4E5FF070000FFFF7FFFF0B557465B
:101ED000DE464E464546E0B5834607000E03480001
:101EE00085B092461C00360B400DCD0F002800D166
:101EF0009DE0954B984239D08023F6001B041E4389
:101F0000924A7B0F334399469446030063440093FF
:101F100000230026FF00029323031B0B9846630057
:101F2000E40F52465B0D019400D1B3E086498B4229
:101F300000D19EE04246D100802212040A4351465D
:101F4000490F11438B46814952468C4600996344A0
:101F5000CB1A0021D20000932B0063409A460F2E2B
:101F600000D905E17A4BB6009B599F465B46334347
:101F7000994600D0B8E0022308260027009002937B
:101F8000CAE7CB463A0002990195019B9A4602297D
:101F900027D0032900D180E2012944D06D49009B5C
:101FA0008C4663441C00002C38DD530700D013E23C
:101FB000D2085B46DB0109D55946674B19408B4671
:101FC0008021C9008C46009B63441C00634B9C42EB
:101FD00007DC5B4664055F075B0217431B0B620D62
:101FE00002E000230027584A00211B031C0B0B0DA5
:101FF0001B05234314055A4A380013401C4353461B
:102000006400DB0764081C43210005B03CBC90461B
:102010009946A246AB46F0BD0122524201231B1B4A
:10202000382B00DCADE1002200230027DCE75B4613
:10203000334399465ED0002E00D18AE13000FEF78E
:1020400023FC03000B3B1C2B00DD7BE11D22D31A7C
:102050005A460100DA4008398E4013005F46334388
:1020600099468F403F4B00261B1A00930023029392
:1020700052E7414653460B433B499B468C46009BE7
:10208000634400935B46002B3BD1022300221E4396
:10209000022161E7434613439B4637D04346002B5A
:1020A00000D162E14046FEF7EFFB03000B3B1C2B27
:1020B00000DD53E102004146083A914088461D2167
:1020C000CB1A5146D9400B0041460B439B46534621
:1020D00093401A00009B25499C46604403008C46AF
:1020E00063440093002137E70323B14600900C2698
:1020F000029311E700230093013304260027029383
:102100000AE70323C3461E43032125E701331E4389
:102110000022012120E700239A46802300271B0389
:10212000094A61E7802349461B03194200D1E2E0D6
:102130005946194200D0DEE00B431B0317001B0B6E
:10214000A246014A50E7C046FF07000001FCFFFF1E
:10215000B86D0110FF030000FFFFFFFEFE07000047
:10216000FFFF0F800DFCFFFF01F8FFFFF3030000EE
:10217000D94500D9CBE000D1C6E03C004846002755
:10218000009B013B00935B46160E1B021E4313028D
:10219000984633041B0C9946310C0191FEF7F4F973
:1021A0004A4642430B04210C050019438A4207D9D1
:1021B0008919013D8E4203D88A4201D9851E8919A9
:1021C000881A0199FEF7E0F909048C464A46210471
:1021D00064464243090C030021438A4204D9891909
:1021E000013B8E4200D8F1E02D041D43AB4643462F
:1021F000891A4246280C12041D0C5B46140C22005E
:102200001B041B0C5A4303946B43444302956843DD
:102210001B19150CEB189C4203D980246402A446B8
:1022200060441C0C15041B042D0C20185D19814200
:1022300077D373D00C1AA24A7D1BAF42BF4194469C
:10224000009B7F426344E01B1C00864200D1DBE020
:102250000199FEF799F94A4642430B04290C0700FD
:1022600019438A4207D98919013F8E4203D88A420D
:1022700001D9871E8919881A0199FEF785F9090481
:102280004A46894629044D464243090C0300294326
:102290008A4207D98919013B8E4203D88A4201D963
:1022A000831E89193F04891A3A00039F1A43380094
:1022B00013041B0C584381460298150C6F4343438B
:1022C00045434846000C8446DB1963449F4203D9CA
:1022D000802040028446654448461F0C00041B04CD
:1022E000000C7D191818A94200D284E000D17FE0CB
:1022F00001231A4357E680234A461B0313431B035B
:102300001B0BAA466F4A6FE6BA4200D935E74B4627
:10231000DC0758087B081C43FF0734E70024AF4262
:1023200089D247444745A4415B466442A4196418D6
:10233000013BA6421ED2A0426DD800D1B6E0241ABD
:102340009B4678E703005A46283B9A40002791466F
:1023500088E65846FEF798FA203072E603005246A7
:10236000283B9A4093460022B4E65046FEF78CFA8A
:1023700020309AE6A642E2D1B845DCD9341A9B4611
:1023800059E71F2B65DC504C0099A4465C4661441C
:1023900008008C4011008240D940501E82410C43FD
:1023A00014435A46DA401300620709D00F22224034
:1023B000042A05D02200141D9442894149425B1829
:1023C0001A0262D50122002300270DE68A4200D8B6
:1023D0000AE7831E891907E70F231340042B00D156
:1023E000E6E5171D9742924153429B44FA08E0E507
:1023F000002800D1D7E57118531EB14227D3A94256
:1024000015D358D01A0073E7002B00DC04E6012333
:1024100000229B44CDE502234744474589415B4266
:102420009C46494289190C19E344241A03E74346A0
:102430005F0047459B41B8465B429E19023A8919A5
:10244000A94200D054E7404500D051E7ABE51A005F
:10245000F6E71F215F4649420C1BE740202B07D0BF
:102460001A49009B8C46634418005B4683401A431C
:10247000501E82413A4307270023174009D00F21FD
:10248000002311401400042995D122005F075B024C
:102490001B0BD20817430022A6E5802359461B03D5
:1024A0000B431B0317001B0B064A9DE5BD42B2D828
:1024B0009B460024BFE68045B9D31A00C3E7C04657
:1024C000FF030000FF0700001E0400003E040000A0
:1024D000F0B54F464646D6468446C0B58046194EAE
:1024E00018030F034D00000B5C0082463F0B6D0D7F
:1024F000C90F9146640DDB0F0120B5420AD0B442EA
:1025000003D0A54201D157450CD01CBC904699463A
:10251000A246F0BD66463E43F7D1AC42F5D15446E3
:102520001443F2D10120C845EFD1994207D0002DC4
:10253000EBD163461F433800471EB841E5E7002052
:10254000E3E7C046FF070000F0B54F464646D646D3
:102550004D00C0B50E03C90F8A462C491F035C000D
:102560008046360B6D0D91463F0B640DDB0F8D429F
:102570001ED08C4216D0002D1ED130438446002C34
:1025800001D13A4323D06246002A1AD09A4529D075
:10259000514602200139084001381CBC904699463A
:1025A000A246F0BD39001143E5D002204042F4E7D5
:1025B0003043FAD1AC420FD0002C0FD13A43E7D0D0
:1025C0000CE00122013B934318000130E5E763462C
:1025D0000020002BE1D0DBE73A43E6D19A45D7D182
:1025E000A542D5DCA54205DBBE42D1D808D00020EB
:1025F000BE42D2D250460123013898430130CCE785
:10260000C845C5D80020C845F4D3C6E7FF07000079
:10261000F0B54F464646D6464D00C0B50E03C90F2D
:102620008A462E491F035C008046360B6D0D91468D
:102630003F0B640DDB0F8D4218D08C4211D0002D62
:1026400018D130438446002C1ED13A431CD1634636
:102650000020002B30D051460220013908400138BB
:102660002AE039001143EAD0022025E03043FBD1B3
:10267000AC4226D0002C26D13A4324D15146022028
:1026800001390840013817E06246002A0FD09A4508
:10269000E1D1A54205DBBE42DDD819D00020BE4203
:1026A0000AD25046012301389843013004E0012248
:1026B000013B9343180001301CBC90469946A2464A
:1026C000F0BD3A43D0D19A45C5D1A542C3DCE0E77D
:1026D000C845C0D80020C845E3D3EDE7FF07000098
:1026E000F0B55746DE464E464546E0B58346060001
:1026F0000F03480087B092461D003F0B400DCC0FE2
:10270000002800D16FE0DE4B984238D08023FF00D4
:102710001B041F43730F3B430193DA4B0027994679
:1027200000239B46F60081442B0369001B0B524695
:102730009846490DED0F002900D185E0D04B994214
:1027400000D173E04346DA0080231B041343524652
:10275000CC48520F84461343524600206144D200B5
:1027600089442100694000918C46012149448A46F0
:102770000F2F00D990E0C449BF00CF59BF465B4638
:102780003B43019300D06AE10223082700268146DB
:102790009B46C9E732005846019B614600910228DA
:1027A00000D175E0032800D1FEE1012800D02CE122
:1027B00000230027002600253F032A0D3F0BB348C6
:1027C00012053A4302401B051343009A5B00D107F0
:1027D0005B080B433000190007B03CBC904699469B
:1027E000A246AB46F0BD5B463B43019300D12FE1CF
:1027F000002F00D1A5E13800FEF746F803000B3B9F
:102800001C2B00DD96E11D22D31A5A460100DA4046
:102810005E4608398F4013008E403B4301939C4B2A
:1028200000271B1A994600239B467DE741465346E5
:102830000B4393498C46E144002B00D01AE102225D
:102840000220174300228CE7134300D10DE14346D9
:10285000002B00D181E14046FEF716F802000B3A4A
:102860001C2A00DD72E10100434608398B4098467E
:102870001D239A1A5346D3401A0043461343524627
:102880008A404946081A824989468144002068E7FF
:102890007B4B002700268EE7140C1204120C11004B
:1028A000370C3604350C794328008C462E006043E3
:1028B0006044834656432100300C80465846794395
:1028C00040440291844506D98846802149028C46BD
:1028D000E044414602913604010C360C00048B465C
:1028E00081191E0C1B041B0C0391190079438C46A3
:1028F000280075436544A8465843050C4544774372
:10290000A94203D9802149028C466744290C8C4690
:1029100039000004000C2D042D186144AB440591CE
:102920005946049101990F043F0C080C390051439A
:102930004243904602008C46090C8B4662437C431E
:1029400044445C44A04503D980214902884642445E
:10295000210C884661460904090C8C46390059430C
:10296000434370437E430F0CF6182404BE1964449D
:1029700042448C46B34203D980235B0298464044CC
:10298000029B61469846049B370443449B46AB45F3
:10299000AD416B420D0405992D0C8C467F1967449F
:1029A000FD18A8465D462D19A542A44193466442F0
:1029B000A446C344DC448F42BF4198459B419345A4
:1029C0009241A445A4415B427F421F43360C5242D0
:1029D0006442BF192243BF18624638184302D20D21
:1029E000039913436A020A43501E82416146ED0D6A
:1029F0002A434E023243D90100D4B3E001265008E5
:102A000032400243DE0732435B08224C5444002C20
:102A100062DD510709D00F201040042805D0101D99
:102A20009042924152429B180200D90104D5802461
:102A30001948E400034054441848844200DD27E765
:102A40005E075B02D2081F0B630516435B0DB2E6FF
:102A5000002399460133042700269B4664E603239E
:102A6000019781460C279B465EE601220120174311
:102A7000002276E6032303201F43434671E6C04647
:102A8000FF07000001FCFFFFF86D0110FFFF0F8042
:102A90000DFCFFFFFF030000FFFFFFFEFE0700002D
:102AA0000023802700933F030026434B83E6019BCE
:102AB0003200A446584670E6AC466EE6802701997F
:102AC0003F0339422DD03B422BD11F433F033F0BE5
:102AD00000951600384B6EE601252D1B382D00DDC4
:102AE00066E61F2D40DC35481C005044160082402D
:102AF0008440EE40501E824134431443EB40620751
:102B000009D00F222240042A05D02200141D94422D
:102B1000804140421B181A023ED50123002700269F
:102B200049E68027019B3F031F433F033F0B00946F
:102B3000214B40E603005A46283B9A40002601926A
:102B40006DE65846FDF7A0FE203057E603005246DA
:102B5000283B9A401300002293E65046FDF794FE6E
:102B600020307BE6CA4650E71F201E004042041B6F
:102B7000E640202D03D0124C5444A3401A43501E6B
:102B80008241324307260027164009D00F20002338
:102B9000104014000428B9D122005E075B021F0B0D
:102BA000D2081643002306E680273F031F433F0356
:102BB0003F0B1600004BFEE5FF0700001E0400005F
:102BC0003E040000F8B557464E464546DE460C002A
:102BD0000903E0B5490A460F5F0031431E03DB0FCE
:102BE000760A9B46530F3343C84E6500C000E40F7E
:102BF000D2006D0DA24681467F0D9C469046B7429D
:102C000000D1B9E05B46012673409B46EE1BA3450D
:102C100000D183E0002E63DD002F00D0B1E06346D9
:102C2000134300D123E1731E002B00D0BAE1861AB2
:102C30006346B04280410125C91A4042091A0B027D
:102C400000D447E149024B0A98464346002B00D185
:102C500089E14046FDF718FE0300083B1F2B00DD0D
:102C60007CE120223000D21A4146D0409940020037
:102C70009E400A439D4200DD6AE15D1B6B1C1F2BD9
:102C800000DD94E1202110003500C91A8E40DA40A1
:102C90008840DD40711E8E41110007222843002527
:102CA00006433240002A09D00F233340042B05D0BD
:102CB000331DB342B641764289191E000B0200D47F
:102CC0003DE26A1C914B55056D0D9A4200D119E108
:102CD0008F4AF6080A40570752023743120B9BE00F
:102CE000002E00D0C5E06E1C7605760D012E00DCAE
:102CF00048E16746861ACB1BB042BF417F42B846C7
:102D00001F004346FF1A3B00B8461B0200D55FE197
:102D100037439AD100220024002579E0002E00DC00
:102D2000FAE0002F00D18DE0784B9D4267D08023E0
:102D300067461B041F43BC46382E00DC52E1634645
:102D400013435A1E93411E1886428041404209187F
:102D50000B0200D4BEE06D4B01359D4200D1D2E0A4
:102D60006B4A73080A4001210E401E435108D307E5
:102D700007221E43324095E71E00164300D045E768
:102D800040E7624B9D423AD0802367461B041F43B5
:102D9000BC46382E00DDEBE01F2E00DC3AE13300AC
:102DA0006746203BDF403B00202E05D04027BF1B5D
:102DB0006646BE40324390464646721E96413343B5
:102DC000DAE0002B00D114E26346134300D168E13E
:102DD00080234E07C008C9081B030643194208D0C8
:102DE0006046C008184204D163460100D2085E075D
:102DF0001643F3009946C900720F444D11434B46E8
:102E0000DE08424B4F073743CA089D4200D16EE0AF
:102E100012036D05120B6D0D00211203130B0A0D29
:102E200012051A433B4B2D0513402B435B00E4076F
:102E30005B082343380019003CBC90469946A246E3
:102E4000AB46F8BD6346134311D0731E002B00D070
:102E500007E18618864280416144404209180125F5
:102E60000B0237D502257BE73E00614691463500CF
:102E7000C5E75C46002D00D0E1E00B000343F3D032
:102E8000731C00D1ACE1214B9F4200D13AE1F343E6
:102E9000382B00DD6FE11F2B00DD8CE120250E00BB
:102EA000ED1AAE40B0460600AA46DE404546354320
:102EB0002E005546D940A8406346451EA8415B1ADE
:102EC0009C463043161AB242924163465242991AC6
:102ED0003D00B4E607223240002A00D0E4E60B4B66
:102EE000F6084F073743CA089D4200D090E73B00E1
:102EF000134300D1A6E180231B031A431203120BD4
:102F0000024D89E715000022002785E7FF07000032
:102F1000FFFF7FFFFFFF0F80002E00D0C7E06B1C7C
:102F20005E05760D012E00DCF0E0C84DAB4200D10D
:102F3000B9E085180A008542894162444942511826
:102F40000722CE076D082E43490832401D00A9E62E
:102F5000BF49ED1A114007223240A3E6320028385B
:102F60008240002686E63000FDF78EFC203073E6B6
:102F7000634613435A1E9341C61AB04280414042F1
:102F8000091A5CE60E00674606431743002D5ED122
:102F9000002E00D0F3E0002F00D11EE15C46614618
:102FA00091462CE7A94FBE427BD01E00F1E61000EF
:102FB0001F3DE840202B03D04021CB1A9A401643F6
:102FC000731E9E410722064332400021002583E7FD
:102FD000161A6346B2428041591A40420B1A98466B
:102FE0005C4632E61F2E00DDABE02027BB1B9A4675
:102FF00063465746BB40994613004F46F3401F4374
:103000003B005746BA40571EBA4113436246F2404E
:10301000891898E62027BB1B9A4663465746BB4053
:10302000994613004F46F3401F433B005746BA40B2
:10303000571EBA4113436246F240891A9CE7834BFC
:103040009F425FD080252D047342294320E7002E44
:103050000CD1002F00D1D0E05C46614691467B4DFB
:10306000CDE67A4FBE421CD01E0065E6002F18D078
:10307000C0084E0706438020C9080003014208D05B
:103080006346DC08044204D12100DA46D2085E0718
:103090001643F300994601245346C900720F1143A9
:1030A0001C406A4DABE61D0000220027B4E6002D4F
:1030B00059D10B00034300D1D6E6731C00D1B2E016
:1030C000624B9F421ED0F343382B6FDC1F2B00DD79
:1030D00097E020250E00ED1AAE40B0460600AA4645
:1030E000DE40454635432E005546A840D940451E92
:1030F000A8418C440643B61896429241514261441D
:103100003D0025E63D006146914678E60B0003430D
:10311000002D00D055E6002BF5D06346134300D1B7
:103120006DE68618864280416144404209180022BB
:103130000B0200D4D0E6464B01351940B2E5B1464A
:103140005DE633006746203BDF403B00202E05D084
:103150004027BF1B6646BE40324390464646721E1D
:1031600096413343EFE5394B9F42CBD080252D0468
:1031700073422943A8E70843411E8841A2E6002F75
:1031800000D13CE66346861ACF1AB0429B415B42AF
:10319000FB1A98461B024ED5161A6346B24292415C
:1031A000591A5242891A5C4600227BE501430E00FF
:1031B000711E8E419FE71D000E00203DEE40B0467F
:1031C000202B04D04025EB1A9940084381464846FD
:1031D0004346411E8841184374E60022002417E646
:1031E000161A6346B2429241591A5242891A3D0058
:1031F00025E561469146154D01E680220024120323
:1032000079E61D000E00203DEE40B046202B04D094
:103210004025EB1A9940084381464E464346711EAD
:103220008E411E4367E7861896429B4161445B428C
:10323000C9183D008CE547463743CED007224146AA
:10324000324049E600273A00E6E5C046FF070000A5
:10325000FFFF7FFF70B50C4E0D031C0349005B00A0
:103260002D0B490D240B5B0DB14208D006490020FF
:103270008B4203D114432000441EA04170BD05437E
:103280000120002DFAD1F1E7FF07000030B5144D01
:103290000A034B00120B5B0DC90F0024AB4211DD7A
:1032A000104CA34210DC8024640322430E4CE41A29
:1032B0001F2C0CDD0D48C31ADA4013005C420029B4
:1032C00000D11C00200030BD094BCC18FAE7094D95
:1032D000E040AC4663449A4013000343EEE7C04627
:1032E000FE0300001D04000033040000130400006E
:1032F000FFFFFF7FEDFBFFFF70B500282DD0C31748
:10330000C5185D40C40F2800FDF7BEFA154B1B1A07
:103310005B055B0D0A2815DD0B38854000222D0367
:103320002D0B002110002D030A0D2D0B12052A4331
:103330000D4D1B052A4013435B00E4075B08234344
:10334000190070BD02002900153291400A000B21BE
:10335000081AC5402D032D0BE3E7002400230025A8
:103360000022DEE71E040000FFFF0F8010B5041EE0
:1033700025D0FDF789FA144B1B1A5B055B0D0A2853
:1033800012DD0B38844000222403240B002110009E
:1033900024030A0D240B120522430C4C1B0522406A
:1033A00013435B00590810BD020021001532914003
:1033B0000A000B21081AC4402403240BE6E700236B
:1033C00000240022E2E7C0461E040000FFFF0F8039
:1033D0004100090E4B1C70B5DBB24602750AC40FE2
:1033E000012B14DDE0239B006D07360BCB18002169
:1033F0000A0D280012051C4D32435B052A405B086C
:1034000013435B00E4075B082343190070BD0029E8
:1034100014D1002D1ED02800FDF736FA0A281CDC36
:103420000B232A001B1ADA40030015339D400F4B73
:1034300012031B1A5B05160B5B0DD8E7002D06D097
:10344000320B802636036D071643094BCFE7084B36
:103450000026CCE700230026C9E703002A000B3B27
:103460009A400025E3E7C046FFFF0F808903000074
:10347000FF070000F0B54C00640D0B03621C5B0AF3
:10348000460F5205C90F1E43C500520D012A29DD02
:10349000374BE718FE2F1CDC002F3BDD8001431E5D
:1034A00098410722F3006D0F03432B431A40002A73
:1034B00004D00F221A40042A00D004338022D20400
:1034C0001A4024D00137FAB2FF2F02D09B01580ACC
:1034D00001E0FF2200204002D205400AC907104344
:1034E0000843F0BD3543002C04D1002D0AD1002241
:1034F0000020F0E7002DECD08020C0033043FF22F5
:10350000E9E7002400235B02580AE2B2E3E7DB08A4
:103510003C00F8E73B001733F3DB80231B04334305
:103520001E26F61B1F2E14DD02225242D71B1A0044
:10353000FA401700202E04D00E4A94466444A3405B
:103540001D432B005D1EAB4107223B431A40002761
:10355000ADE7094A2800A218954093406C1EA5418A
:10356000F04007222B4303431A4000279FE7C04641
:1035700080FCFFFFA2FCFFFF82FCFFFF10B50029CB
:1035800003D1FDF781F9203002E0081CFDF77CF93A
:1035900010BDC046F0B54E465746DE464546E0B53E
:1035A0000F00002183B006008946002F06DA39009B
:1035B000002746428F41012149428946002B07DA04
:1035C0004946C943100089461900002342428B41F5
:1035D00034003D0092469846BB4269D866D04146C9
:1035E0005046FFF7CBFF834639003000FFF7C6FF98
:1035F0005B461B1A9C46203B9B4600D575E0514616
:10360000584681400B005146604681400A00BB424B
:1036100061D85ED034003D005946A41A9D4100296E
:1036200000DA7AE00021002001260090019159463D
:103630008E400196614601268E4061460096002923
:1036400050D0D90756085F080E4363460EE0AF42DC
:1036500001D1A6420CD8A41BBD41012124196D4102
:103660000022013B64185541002B06D0AF42EED931
:10367000013B24196D41002BF8D1009801995B465C
:1036800000196941002B3DDB2E00DE4063462C0013
:10369000DC405B46002B4BDB34005D46AC40230036
:1036A0006446A6403200801A994103E0B24296D99E
:1036B000002000214B46002B04D003000C00002109
:1036C0005842A14103B03CBC90469946A246AB4645
:1036D000F0BDB1429ED900210020009001916146C9
:1036E0000029AED100980199E4E7202362465146B3
:1036F0009B1AD940404600916146884003000099DA
:103700000B4380E7624620239B1A2A009A4026003A
:1037100013006246D6401E43B8E7614620260127C3
:10372000761A00200021F74000900191019781E76F
:103730006746202362463500BC409B1ADD402300CB
:103740002B43ADE7024670B50A4392072AD11E4DBE
:10375000EE0104C808C9541B9443344017D0D0B2BA
:10376000D9B2401A2106014310D190B299B2401A41
:10377000210401430AD110021902000A090A401A61
:103780002102014302D1100E190E401A70BD9A4257
:10379000DFD010BA19BA884201D9012070BD0020CB
:1037A000C04370BD02780B7801300131002A09D086
:1037B0009A4207D102780B7801300131002A01D0FA
:0C37C0009A42EFD0D01A70BD0101010147
:1037CC0010B50021102003F0A1FF022003F0F6FE3B
:1037DC000121102003F09AFF0A2003F0EFFE0021D4
:1037EC00102003F093FF0B4A0121112003F0EEFF90
:1037FC0000280CD0FFF77AFD074A084BFEF76AFF4A
:10380C000022074BFEF766FFFFF72EFE10BD0548A2
:10381C00FCE7C046307500009CC420B07268A13F24
:08382C000000E03F000080BF36
:103834001FB50A4B0A4C02930A4B40220193012301
:103844005B4200938021084B200001F0BBF9074A3A
:103854000749200009F0CEFD1FBDC046A086010027
:1038640048270020801A0600D415002048020020B2
:043874002D4C0010C7
:1038780037B5E121284C4902200002F0EDF803F0A9
:1038880081FE0500200001F0FFFE002805D103F0AD
:1038980079FE224B401B9842F4D92149200003F0BD
:1038A800A5FC0121102003F0F5FE0021112003F0F2
:1038B800F1FE0C2003F0E8FE1A49200003F096FC04
:1038C800194800F03DFA1949200003F08FFC012344
:1038D800174D00933C220221280001F09FFA00288E
:1038E80009D1FA25AD001349200003F07FFC280018
:1038F80003F062FEF7E71049200003F077FC280088
:1039080001F07BFA002300200C4A9900013388500B
:103918000A2BFAD137BDC046001C0020B70B0000A7
:103928001F6F01103B6F0110D4150020526F01105A
:10393800482700207A6F0110B66F01101C2A00205A
:10394800F0B58BB0FFF73EFFBE490290FCF76AFF67
:10395800051E13D1BC4E3378002B00D006E1FC21A4
:1039680002988905FCF778FF002809D0B749029822
:10397800FCF75EFF002803D0012333700BB0F0BDC5
:10398800B34C029A2068B34E83009A5101300A2141
:10399800FCF7E0FE002500202160AB00F15801355E
:1039A800FDF7F6F80A2DF8D1AB49FDF78BFA00239D
:1039B800002505900493049BA64A9B0098580599F6
:1039C800FDF78AFDFFF700FD02000B00FEF784FEFD
:1039D8000600281C0F00FFF7F7FC0B000200390057
:1039E8003000FDF753FFFFF741FD049B051C013331
:1039F80004930A2BDFD19849FDF764FA0CF0C8FB51
:103A080000252468071C631D05932E1C20000499BB
:103A1800FCF7A0FE8F4B8900C958301CFDF7B8F899
:103A28000499061C601DFCF795FE8A4B8900C9584D
:103A3800281CFDF7ADF8059B0134051CA342E5D110
:103A4800011C301CFDF748FD0021041CFCF704FF95
:103A5800002802D180231B06E418804907A803F038
:103A680034FD7F49381CFCF7F7FE002870D07D49EB
:103A780007A803F049FD00257B4C7C49200003F092
:103A880099FB0298FFF7A0FC022602000B000290A7
:103A980003910096200003F0C3FC7549200003F051
:103AA80089FB381CFFF790FC002702000B000096EA
:103AB800200003F0B5FC6F49200003F07BFB07A949
:103AC800200003F089FB6C4C013E200001F095F9C1
:103AD8000121200000F03DFF68492761200003F024
:103AE80069FB0A22802339002000009601F0D0FBF0
:103AF800A0235B0323616249200003F05BFB07A955
:103B0800200003F050FB80239B035E4923612000C3
:103B180003F050FB029A039B0096200003F080FC00
:103B28005949200003F046FBC0239B0323615749F2
:103B3800BD4200D05649200003F03CFB200001F0B4
:103B4800F5FB07A803F072FC642003F035FD15E7C8
:103B58008021201CC905FCF77FFE4E49002800D1B2
:103B68004D4907A803F0D0FC012585E7012BEBD1CF
:103B780064241A2003F04AFD2B000094474A484960
:103B880003F0EFF90500A04258DD25000027364C68
:103B98004449200003F00EFB0A222900200003F00C
:103BA80072FB4149200003F021FB334C200001F057
:103BB80024F90121200000F0CCFE3C4927612000B7
:103BC80003F0F8FA01230A22009339007F3320001A
:103BD80001F05EFB0221200000F0BBFEC8235B035E
:103BE80023613349200003F0E5FA0A222900200066
:103BF80003F049FB2C49200003F0DCFA01212000E6
:103C080000F0A7FEDC239B032A492361200003F070
:103C1800D1FA200001F08AFB82210298C905FCF73D
:103C28001BFEB84290D03B0000200A4A990001339D
:103C380088500A2BFAD10023337085E7C343DB177A
:103C48001D40A3E7000080BFEA2A00200000C04012
:103C5800182A00201C2A002000002041606E011054
:103C6800000060406D6E0110001C0020916E011074
:103C7800986E0110A36E011048270020B06E011045
:103C8800A66E0110C16E0110CB6E01104B6E0110B3
:103C9800386E01107A6E0110876E0110DC05000085
:103CA800FF0F0000CE6E0110EC6E0110EE6E0110D9
:083CB800016F0110086F0110FB
:043CC0000020704729
:023CC400704747
:0C3CC60010B50368C9B21B68984710BD18
:0E3CD2008B23002249009B00C161C250704745
:0C3CE00010B5036801211B6B984710BD54
:0C3CEC0010B503689C6B0123A04710BDBD
:103CF80030B58B248025A400025903006D000020F4
:103D0800AA4206D0501C185101209B182D33FF33AE
:043D1800197030BD31
:023D1C007047EE
:083D1E008C239B00C15070478B
:083D26008D239B00C150704782
:103D2E000300FC33DA6A002A04D09B6A0130C01803
:0A3D3E00C07F704701204042FBE700
:103D480070B5036804005B6A9847402009F072FD6B
:103D580005001A23E25E1823E15E05F0D5FF6561D0
:023D680070BD2C
:0A3D6A0010B50C220DF00BFE10BD89
:103D740070B58B25AD00435906001400D01880227D
:103D84005200904200D9D41A30002D30FF30C018B0
:103D940022000DF0F7FD735920001B19735170BDFB
:103DA40070B5050040690C00002801D005F0D4FE70
:0E3DB4002869002802D0210005F0F0FF70BD44
:103DC20010B50400FC3409F098F8E46A09F0ABF885
:043DD200200010BD00
:103DD60010B5040009F08FF82300FC33DA6A002AD4
:103DE60011D0DA6A002A0ED09A6A0134A4189A6AA7
:103DF600E47F0132D2B29A62DA6A013ADA6209F0F3
:0C3E060090F8200010BD01246442F8E791
:103E120070B504004069002804D00368DB68984745
:103E2200002363612369002B13D08E25AD006059F6
:103E320009F0E3FF60590AF001F86059002802D046
:103E420003685B6898470C21206909F026FD00236E
:043E5200236170BDBB
:103E56008B2330B502000C0001259B00C35885B0AA
:103E66004069D1696C40002B07D100942B0003AA4E
:103E760005F0A1FEC0B205B030BD2D32FF32009470
:0C3E860005F079FE431E98414000F4E76F
:103E9200F0B514008022C3B005005200944200D94C
:103EA200140001225340009302AE49002300320065
:103EB200686905F082FE002817D12B00FF27FC332A
:103EC2000135A04212D08021DA6A49008A420AD022
:103ED2005A6A315CAA18D1775A6A01323A405A6258
:103EE200DA6A0132DA620130EBE70024200043B0E3
:023EF200F0BD21
:103EF400F0B50400FF27C1B0206905F05CFF03287A
:103F0400FAD8FCF7AFFA5C0222228D239B00E35817
:103F1400002B00D098478B26B600A359002BEBD07A
:103F240008F0EAFF2100A5592D313D402A00FF3158
:103F340068460DF027FD0023A35108F0F3FF2A0083
:103F44006946206905F03FFFD6E7F02269462069FB
:103F540005F035FF050008F0CFFF23000022FC33F5
:103F64005A62601C9A62DA62AA4215DA8026D96A19
:103F74007600B14210D0D96AB1420BD06E46596A6C
:103F8400B65C4118CE77596A013139405962D96A11
:103F94000131D9620132E7E708F0C4FF2368200049
:103FA4001B6998470028A7DD8C239B00E558002D4A
:103FB400A2D0236820001B699847A8479CE703F018
:043FC40011FB99E76D
:063FC8000023C3607047F6
:0E3FCE00C36810B5002B01D09B68984710BD4A
:103FDC00FA2370B500254283802204009B00836085
:103FEC000C4B456008330561456103600183520049
:103FFC00290020300DF054FD2300FC335D629D62DE
:10400C00DD628B239B00E5500433E5500433E5500F
:08401C00200070BDF06F0110DF
:0E40240010B504000021FFF7CDFF200010BDF5
:0C40320010B50400FFF7CAFF200010BD0D
:10403E0010B542680368086854100019D20701D5FC
:08404E000268D358984710BD29
:0C40560010B501000430FFF7EFFF10BDB3
:1040640010B5024BC3601CC91CC010BDD86F011031
:1040740010B586B00400684603910092436004AB17
:1040840006C806C3200003A9FFF7EAFF200006B014
:0240940010BD5D
:0C40960013B50400FFF7EBFF200016BD7F
:1040A40070B5036888B05B6A04000E0098470C2062
:1040B40009F0C2FB05001A23E25E1823E15E05F055
:1040C40053FE71002561280005F06CFEBC2009F048
:1040D400B3FB0500134B08C0FFF7A2FF2800002123
:1040E400403009F001FE2800543009F099FD802287
:1040F4000D4B2800009312010023182109F072FED1
:104104008E239B00094AE5502100002304A8FFF7F1
:10411400C0FF04A9280009F0CFFE04A8FFF787FF19
:1041240008B070BD4C930110E46F0110F53E00100F
:0841340010B5FFF78EFF10BD6E
:08413C0010B5FFF7F9FF10BDFB
:1041440010B5042003F00AFA0400052003F006FA6F
:10415400210002000148FFF73FFF10BDD4150020E5
:024164007047A2
:10416600F0B51D0089B00EAB00241C5F0FAB1B8899
:1041760016000693A31ADA179B18534002936B1A7C
:10418600DA179B1853400393039A029B01909342BC
:1041960005DC23002C001D0033000E001900A6428A
:1041A60005DC2B000D001900230034001E00331B14
:1041B6009BB204934B1BDA179B18534007936B462D
:1041C60010229A5ED30F9B185B10009301238D4239
:1041D60021DA0593B44224DC019B039A1B689B6990
:1041E6001F00029B934218DD22002900069B0198BE
:1041F600B847009B079A9B1A9BB21AB20092002AF4
:1042060006DA059AAD18049A2DB2D3181BB200939C
:10421600013424B2DEE75B42DBE7069B2A0021007D
:06422600E5E709B0F0BD60
:02422C007047D9
:0A422E0010B504682469A04710BD14
:1042380037B506AC258804680095A46BA04737BD40
:1042480037B506AC258804680095E46BA04737BDF0
:1042580073B506AC0025655F07AC2688046801962F
:084268000095246CA04773BD12
:10427000F0B5160004000D0085B003930AAB1F884B
:1042800003685B699847039B2268013B9B191BB23B
:1042900000930197976A2B00320029002000B8474D
:0C42A00023682000DB6A984705B0F0BDE1
:1042AC00F0B505001C000E00170085B00AAB1B888A
:1042BC00013C03930368A4195B69984703992A6826
:1042CC000191009723B23100946A28003A00A0476C
:0C42DC002B682800DB6A984705B0F0BD95
:1042E800F0B50E0087B003930CAB029200229B5EE0
:1042F800050004930DAB1B883400059303685B69C4
:104308009847039A2B68B21894420ADA059A210052
:1043180000921F6A029A049B28000134B84724B20D
:0C432800EFE7DB6A2800984707B0F0BD03
:1043340013B501910E24015F0C22835E0268009183
:0A434400146C00221100A04713BD05
:10434E00F0B5040015000E0087B004930CAB0022EC
:10435E009B5E05930DAB1B88039303685B699847BF
:10436E00039A236800925F6A2A00049B31002000A2
:10437E00B847059B03995A1E2368009152195F6A2C
:10438E003100049B200012B2B847039A23680092B2
:10439E001F6A2A00059B31002000B8470499039A32
:1043AE00236801390092891909B21F6A2A00059BF8
:1043BE002000B84723682000DB6A984707B0F0BD9D
:0243CE00704736
:1043D000F0B585B01E000AAB0027DF5F0BAB1B8872
:1043E00014000500029103930268B14210D1BC424F
:1043F00002DC3B0027001C00039901340091E31B01
:10440000966B1BB23A0002992800B04705B0F0BD88
:10441000BC4211D1029BB34202DC3300029E0293E4
:10442000029B0399013300919B1BD76B1BB22200A7
:1044300031002800B847E9E753699847039A2B6889
:10444000019200979F6A2800330022000299B84722
:0A4450002B682800DB6A9847D8E7C4
:10445A000323194010B50822835E81760A24025F7D
:10446A00012904D0032902D08381C28110BD82812F
:04447A00C381FBE718
:104480004281C2810122524242610222002310B5C0
:10449000FF32074C0283013A0834FF3A436004605C
:1044A0000181818103618376C2760377036210BD47
:0444B000487501103A
:1044B400F0B58DB0089312AB039200229B5E079176
:1044C400049313AB00229B5E0400099314AB1B8876
:1044D4000A9303685B6998470722049B039FD91DCD
:1044E400CB1713405B18DB10059300231D000193C9
:1044F4000B92039ABBB206939B1A099A1BB29A4277
:104504002BDD0023049A93421EDA9AB202920B9A8C
:104514006D0099B2EDB2114204D1089A0199DB10F1
:104524005218D55C6BB2002B0ADA079B029A200062
:10453400D118236809B29B693A001E000A9BB04750
:10454400029E013633B2DDE7059A019B9446069F2D
:104554006344013701933FB2CBE723682000DB6A51
:0645640098470DB0F0BD08
:10456C00F0B595B01D001AAB1B88040005931BAB6E
:10457C001E881CAB1B78089103931DAB1B7804920F
:10458C000293036A002B00D0C4E00C22835E8B42A2
:10459C0000DC7DE00E22835E049A934278DD0623D4
:1045AC00039A53435B18002B72DD029B049ADB00C9
:1045BC009B18002B6CDD037F002B03D1AF2D01D991
:1045CC000135EDB2236820005B69984705235D43F4
:1045DC000B9300230793984B5B190F93079A0F9B30
:1045EC009B5C0A936B469B8B09936B469B890D9343
:1045FC006B460D9A1F8C099B5343FB181BB20E93F1
:10460C0008230C930023069301220A9B2068134273
:10461C0052D06B461A8B198A039B012B3AD1029B01
:10462C00012B37D1099B52188569D919059B12B2F8
:10463C0009B22000A847069B01335BB206930A9B84
:10464C005B080A930C9B013BDBB20C93002BDBD178
:10465C00079B01335BB207930B9B013BDBB20B93C4
:10466C00002BBBD1059BB3420ED0039B2268012BC0
:10467C003FD1029B012B3CD105370096156A39B20C
:10468C000733049A2000A84723682000DB6A984768
:10469C0015B0F0BD6B460C255B5F029D6A438A1812
:1046AC00059912B2019169460825495F0091C569C7
:1046BC000E992000A847BEE7059BB342BBD06B46C2
:1046CC00198B1A8A039B012B0AD1029B012B07D150
:1046DC00099B5218D91912B209B285693300A8E79F
:1046EC006B460C255B5F029D01966943521812B212
:1046FC00D9E76B460C215B5E05210D980196414371
:10470C0002987918C0000090D56909B2049A20006B
:10471C00A847B9E71A7AAD1AEDB25A68ED001B68D2
:10472C00551913932B880993AB780D93EB78119350
:10473C000523EB560E930623EB560F93039B012B8D
:10474C0002D8029B012B56D96B4638229B5E0B93E9
:10475C006B463C229B5E0C930027236820005B6910
:10476C00984707970697119B069A9A4200D38BE7B6
:10477C006B461B8A00260A930C9B9B18029A534388
:10478C000A9AD3181BB210933B000D9A96424BD247
:10479C005A1CD2B212920722134207D1099B0999D3
:1047AC00139A0133525C9BB2079209936B461B7FA1
:1047BC005BB2002B17DA6B46198C039B2068012B1C
:1047CC001DD1029B012B1AD10A9B0F9A9A18069B9A
:1047DC00D2180E9B12B2C918836989191D0009B22F
:1047EC00059B2000A847079B01365B00DBB20793B3
:1047FC00F6B2129BC9E700230C930B93ACE76B4604
:10480C000C229B5E0B9A039D92196A438918059A98
:10481C0009B201926A460825525F0092C2692000D3
:10482C001500109AA847DEE7069D0D9B0135FF1871
:0C483C00EBB2FFB2069396E74870011043
:10484800F0B5026A85B004000B00002A34D10A29A9
:1048580008D1437E0282DB00628A9B1863820120B2
:1048680005B0F0BD0D29FAD0E17E007E657E0029F5
:104878000ED01026A15F0626464389190C27E65F4D
:10488800B14205DD1226A15F2282EA005218628237
:104898000290E08A1221625E0190A08A1026A15F30
:1048A800009003952000FFF75DFE0622237E534308
:1048B800228A9B182382D2E70A2905D10023038282
:1048C800127B437E5343C7E70D29C8D0117A8B4228
:1048D800C5D3907A9842C2D3591AC9B25068C90050
:1048E8004518AF78002F28D0E978002925D0E17E37
:1048F800207E667E002913D005216956C9194143D7
:104908008C461021675EBC440C21675EBC4507DD00
:104918001227E15F00272782127B724352186282B6
:104928000290E08A1221625E0190A08A1027E15F5E
:10493800009003962000FFF715FE2B79227EB6E73C
:10494800002900D101310176002A00D101324276D6
:024958007047A6
:0A495A0010B50A00FFF7F3FF10BDCF
:104964000B000F2130B50122172487B069440B7066
:10497400C3686C44186803680092DD682300A84784
:06498400207807B030BDF1
:10498A00F8B5427A036805000C00CFB29B680E0A9C
:10499A00002A0FD13900FF2798472B68BC430443EC
:1049AA009B683100280098470302200038401843CA
:1049BA0080B2F8BD31009847FF262B6800023440C8
:1049CA0004439B68390028009847B4432043EFE723
:1049DA0013B5C368186803680092DC680B00A04727
:0249EA0013BDFB
:0249EC00704712
:0249EE00704710
:0249F00070470E
:1049F20030B5436885B004000D00029103929942DC
:104A020005D113000192826853401B0210D002AB01
:104A12001A79E3680821186805F078FAE368290032
:104A2200186805F08FFA201D072202A90CF0ABFFCF
:044A320005B030BDDE
:104A3600C36810B50400002B0BD01868002808D0F6
:104A460003685B6898470421E06808F024FF0023A8
:044A5600E36010BD4C
:0E4A5A0010B50400182108F01CFF200010BD4C
:104A680037B5C5680400002D04D1042008F0E2FE23
:104A7800E0600560E3681B68002B11D1302008F066
:104A8800D9FE1422A35E05001021625E1220215E69
:104A9800012040420090280005F0FAF9E3681D6003
:024AA80037BD18
:104AAC0070B5102002F056FD0500132002F052FDE7
:104ABC000400122002F04EFD094A0A4B08321A601B
:104ACC000121002259725A601A729A72DA60988225
:104ADC00054A064918001D825C8208F087FC70BDEF
:104AEC00A0750110BC15002048020020F1490010EF
:104AFC00F0B500291BDB0C25445F8C4217DD002A26
:104B0C0015DB0E25445F944211DD847E022C0FD000
:104B1C00032C16D0012C04D1D2430489A4180A000A
:104B2C0021B2012B13D0002B22D0022B32D0F0BD9E
:104B3C00CC4301890919D443428909B2121912B222
:104B4C00EFE7C94344896418110022B2E9E707254D
:104B5C00D4172C40A4182A4093400827C65FE410B1
:104B6C0074436118C46A61180A7813430B70DEE74A
:104B7C000724D31723409B180826855FDB106B4353
:104B8C005918C36A22405918012393401A000B7814
:104B9C009343EBE70724D31723400826855F9B1824
:104BAC00DB106B435918C36A01202240904002006D
:0A4BBC0059180B785A400A70B9E747
:104BC80070B5002504001E0012B204AB09B25D578F
:104BD800FFF752FC104B08332360002363629E42A8
:104BE80000D10E4E2100FF223331A662E3620A7023
:104BF8004A708A70CA70220037321570059A0121EE
:104C0800A263069A2000E263054A626422004432E5
:104C180013715171937170BD7C7A0110D415002005
:044C280000093D0042
:104C2C00054B10B5083304000360C06A002801D09E
:0C4C3C000CF074FB200010BD7C7A01100D
:104C4800836AF7B504000E000200002B14D030323E
:104C580011781A681800D26A9047A06A0021036880
:104C68001B689847A06A310003681B689847A06AC8
:104C780003685B6B9847F7BD35321078190002F06E
:104C880047FD606A002804D0036831009B68984794
:104C9800F1E70827802523002900333318783140AD
:104CA80002F036FD2300343301931878012102F015
:104CB8002FFD019B00211878013F02F029FD6D08A6
:064CC800002FE8D1D7E740
:104CCE0070B50400806A0D00002812D00368A16B35
:104CDE009B6A984729004D1EA9412000A631FFF777
:104CEE00ACFFA06A002813D00368E16B9B6A98475B
:104CFE0070BD606A002804D00368616CDB69A26C29
:104D0E009847230036331878002102F0FEFCE1E7C5
:104D1E00230036331878012102F0F7FC606A002870
:0A4D2E00E6D003681B6A9847E2E72D
:104D3800F0B5836A85B08A1805000C000392002B31
:104D48002DD007001A68303718003978D26A904792
:104D5800A86A0021036801261B689847A86A039A75
:104D68000368A24217D03E2E0CD95B6B9847A86AFD
:104D7800397803680126DB6A9847A86A0021036826
:104D88001B689847A86A2178036801361B6898470A
:104D9800B6B20134E2E75B6B984705B0F0BD02009C
:104DA80035321078190002F0B3FC039B9C42F4D012
:104DB8002378686A0193002805D0036801999B68E5
:104DC80098470134F1E7082680272B0001993333EF
:104DD8003940187802F09CFC2B0034330293187881
:104DE800012102F095FC029B00211878013E02F097
:0A4DF8008FFC7F08002EE8D1E3E7EE
:104E0200072110B50A22835E0733DA170A40D21847
:104E12000821435ED2105A43C06A00210CF045FEBD
:024E220010BDC1
:104E2400F0B587B004930CAB1F78C36A04000591F6
:104E34001600002B1BD02000FFF7E1FF0A23E25EDF
:104E44000823E15E202A25DC203AD30F9A180B00B0
:104E5400733BD90FC918012302931F335210491011
:104E640001935333009312B209B2964B24E00A2201
:104E7400835E07220733D8171040C0180822A35EA8
:104E8400C01058430CF044FAE062031ED3D118005A
:104E940007B0F0BD403AD30F9A180B00523BD90F1C
:104EA400C918012302933F3301931233521049105E
:104EB4000093854B12B209B22000FFF7F9FA6B4652
:104EC40025001B7D31352B70A06A00286BD0002E85
:104ED40067D10A23E65E203E731E9E413C362300C2
:104EE40030331E70002F00D1E7E00368DB69984778
:104EF400049B002B1BD02600002037363056002898
:104F040015DBC0B2012102F0C7FB0121307802F0A9
:104F140001FC012002F052FB0021307802F0FAFB80
:104F24000A2002F04BFB3078012102F0F3FBA06A67
:104F3400002862D00368A16B9B6A984704226349E6
:104F44002000FFF7F7FE618920000139C9B2FFF79D
:104F540079FE5F4904222000FFF7ECFE0023EB56A4
:104F64001421012B00D104392000FFF76BFE260029
:104F7400042258492000FFF7DDFE8F2340363370AA
:104F8400A368554A0227934251D0544A934243D1CD
:104F94000022AA56CF23012A00D1303B33701227B6
:104FA40045E076B29BE72300260035331878363681
:104FB400012102F071FB3078012102F06DFB3078A1
:104FC400012102F0A7FB666A002E05D0002F8FD0C6
:104FD40033683000DB6A8AE723002700333318780C
:104FE4003437012102F058FB3878012102F054FBD8
:104FF4003878310002F08EFB7AE7606A002804D02A
:105004000368616CDB69A26C984723003633187817
:10501400002102F07FFB91E7314A934232D1002212
:10502400AA56AF23012A00D19F3B02273370DA210D
:105034002000FFF707FE39002000FFF703FE81215F
:105044002000FFF7FFFD31782000FFF7FBFDD92199
:105054002000FFF7F7FD0023EB56F121012B00D1CF
:10506400CF392000FFF7EEFD200006221D49FFF78F
:1050740061FEA06A002811D00368E16B9B6A98471F
:10508400012304E7184A02279342D0D10022AA56EA
:10509400CF23012A00D081E7BF3B7FE723003633CB
:1050A4001878012102F036FB606A0123002800D140
:1050B400EDE603681B6A9847E2E7049B002B00D0E7
:1050C40019E737E79C780110DC750110E47A0110C8
:1050D400E87A0110EC7A0110800020008000400082
:0C50E40060001000F07A01104000200075
:1050F000F0B5140005AA1688002C41DB0A25425F92
:10510000A2423DDD002902DA5B1800211BB2082211
:10511000855E5A18AA4201DD6B1A1BB2002B2FDDE7
:105120000727E2173A401219D2105543C26A0120EC
:105130003C40A04069185218C0B2012E0CD0002E7D
:1051400013D0022E1CD1013B1BB2591C18D0117870
:10515000414011700132F6E7013B1BB2591C0FD0E0
:105160001178014311700132F6E7C043C0B2013B30
:105170001BB2591C04D01178014011700132F6E7BE
:02518000F0BD80
:10518400F0B505AC2588002976DB0824065FB1421A
:1051940072DA002A02DA9B1800221BB20A27C45FC3
:1051A400D718A74201DDA31A1BB2002B64DDD2B2CB
:1051B400DCB2D30873435918C36A591807231A4039
:1051C4001FD001339A1A314BD2B29B5C944254D211
:1051D400FF26171B3E413340012D06D0002D08D079
:1051E400022D49D10E78734001E00E7833430B70E1
:1051F40002E00E789E430E7094423DD30826835FEE
:10520400C918A31ADBB2072B22D9022D10D11A0018
:105214000C78083AE4430C700825445FD2B20919AB
:10522400072AF5D80722134026D0194AD35C19E07F
:105234002C00621E94411A006442E4B20C700827E8
:10524400C65F083AD2B28919072AF7D80722134051
:10525400002B11D00E4AD35C012D06D0002D08D0AE
:10526400022D09D10A78534001E00A7813430B70E8
:1052740002E00A789A430A70F0BD012DB5D0002DE2
:10528400B7D0022DAED08919BBE7C046D47A01103D
:04529400DC7A0110AF
:1052980037B5140006AA1588827E022A0DD0032A83
:1052A80018D0012A11D1E2430489A41824B20A00B3
:1052B80000952100FFF762FF0BE0E2434489C9181B
:1052C800A418028924B2511A09B200952200FFF7E6
:0E52D8000BFF37BD4289C918511A09B2E7E72A
:1052E60037B5140006AA1588827E022A0DD0032A35
:1052F60018D0012A11D10289E418141B24B20A001D
:1053060000952100FFF7F1FE0BE0CA430189E4187E
:105316008918428909B2141B24B200952200FFF7AE
:0E5326002EFF37BDCA434189891809B2E7E757
:10533400F0B50400806A85B0002855D00368A16BDD
:105344009B6A9847042259492000FFF7F3FC08227E
:10535400A35E402B57D120212000FFF773FC218945
:105364001F31C9B22000FFF76DFC07210A23E25E5A
:10537400A06A0732D3170B409B182289DB105343D2
:105384009BB20193E66A00284FD0270003683037A8
:105394003978DB6A9847A06A4021036801251B68B5
:1053A4009847019BA06A013B9BB20193019A036851
:1053B40011003F4A91422DD03E2D0CD95B6B98478A
:1053C400A06A397803680125DB6A9847A06A4021FE
:1053D40003681B689847A06A3178036801351B6825
:1053E4009847ADB20136DCE7606A002804D0036850
:1053F400616CDB69A26C984723003633187800216E
:1054040002F088F99EE700212000FFF71BFC2189A8
:105414000139A6E75B6B9847A06A002838D0036877
:10542400E16B9B6A984705B0F0BD230035331878CB
:10543400012102F06FF9019B013B9BB201931A0019
:105444001B4B9A42E8D03378606A0293002805D057
:10545400036802999B6898470136ECE70825802782
:105464002300029933333940187802F053F92300AA
:10547400343303931878012102F04CF9039B002183
:105484001878013D02F046F97F08002DE8D1E3E7E2
:10549400230036331878012102F03CF9606A0028B1
:1054A400C1D003681B6A9847BDE7C046F67A01106D
:0454B400FFFF0000F6
:1054B80070B5104C10492068104A114B88420FD122
:1054C800606890420CD1A068984209D100250D4827
:1054D80025600AF03DFA03008020290080049847DF
:1054E800216009480021A36062600AF09FF8002348
:1054F800236070BD44100020DE8116F0299B72BD28
:0C5508007ABE59D355420000A086010075
:105514000B00F0B50F2700260E33023902003A4083
:10552400D5B22C0000093034092A00DD07341C7080
:0A5534005E70023B9942F1D1F0BD18
:04553E001E20704774
:025542007047B0
:1055440013B50400684609F0F5FA21000098FFF746
:10555400DFFF210001981031FFF7DAFF202016BD8C
:1055640010B5192001F0FAFF040004480AF0F2F91A
:10557400030001200021A0409847C0465542000086
:105584009A2370B55B00C35C05001400002B1CD18A
:105594000368DB699847F0210C4B09012140C918C5
:1055A4004B1E9941F0232340303B5A4253410F2272
:1055B4000731144001330D3A012C02D0023C6242FF
:1055C4006241A869006804F01AFE70BD00FDFFFF87
:1055D4009A2310B55B00C35C0400002B05D1A369BA
:0C55E400186804F03CFE0028F9D010BD4F
:1055F0009A2370B55B00C55C0400002D14D183694B
:10560000002B0CD01868002809D00368DB68984785
:10561000A36904211D60A06908F040F9A561002379
:0A562000FC34E3622363636370BD92
:10562A009A23F7B55B00C35C0400002B2AD18025BE
:10563A00FF276D00A369186804F0F2FD002821D045
:10564A0007F057FCA369012218686B46DE1D036840
:10565A0031005B6998472300FC335A6BAA420ED08B
:10566A005A6BAA420BD02200D96A30782832505499
:10567A00DA6A01323A40DA625A6B01325A6307F047
:06568A004EFCD7E7F7BD5E
:105690009A2210B552000300805C002806D0012039
:1056A00001F08EFF054801F05EFA10BD9B69002BEA
:1056B000FBD01868431E9841C0B2F6E710180020CE
:1056C00070B504000D0001F04EFA03000020834283
:1056D00004D0236829001B6C2000984770BD08B4D3
:1056E000024B9C46024BC01A08BC6047C1560010D2
:0456F0004001000075
:1056F40037B56B46DC1D9A2321705B00C35C050043
:10570400002B04D0C9B20A48FFF7D8FF3EBDAB69ED
:10571400186804F0A4FD0028F9D0AB6901221868C8
:10572400210003681B6998470130431E9841EDE747
:045734001018002029
:10573800F7B5060001911700002401F010FAA04205
:105748000DD0A7420BD93D1B402D00D94025019B08
:105758002A001919300000F035FF6419F1E720001C
:10576800FEBD08B4024B9C46024BC01A08BC6047F9
:08577800395700104001000048
:105780009A2370B55B00C35C05000E001400002B6B
:1057900005D00F48FFF7D0FF0400200070BDAB69B3
:1057A000186804F05EFD0028F9D0AB6901211B6880
:1057B00018005B6F74301B6B9847AB692200186848
:1057C000310003681B699847431CE6D10024E4E7D5
:0457D000101800208D
:1057D400F0B5C3B0050001F0AFF9932380229B001C
:1057E400E918CB6852000400D31A984201DDCC6852
:1057F400141B01AB220002A92800A82600F0E1FF37
:105804000021019802AB241A76001C1993238022EC
:105814009B00EB18DF685200974211D081420FD0F1
:10582400DF6897420AD05A68675CAA1897555A6885
:105834000132D2B25A60DA680132DA600131E5E746
:0458440043B0F0BDC0
:1058480070B5040000F0A0FB2000FFF7BFFF932312
:105858009B00E318DD68200000F09DFB280070BD68
:1058680008B4034B9C46034BC01A08BC6047C046AB
:08587800495800104001000036
:105880009A2310B55B00C35C0400002B05D00648CA
:10589000FFF7DAFF0400200010BDFC3407F02EFBF8
:0C58A000646B07F041FBF6E710180020D5
:1058AC0070B5040000F06EFB2000FFF78DFF932312
:1058BC009B00E318DA68002A09D0A8229B685200E2
:1058CC00E3189D5C200000F064FB280070BD0125EE
:1058DC006D42F7E708B4034B9C46034BC01A08BC57
:0C58EC006047C046AD58001040010000AD
:1058F8009A2310B55B00C35C0400002B05D00B484D
:10590800FFF7D0FF0400200010BD07F0F3FA2300D2
:10591800FC335A6B002A05D01B6B2834E45C07F073
:10592800FFFAF0E701246442F9E7C04610180020A6
:1059380070B5040000F028FB2000FFF747FF932311
:105948009B00E318DA68002A10D0A8219A68490059
:10595800A218555C9A680132D2B29A60DA68013AA4
:10596800DA60200000F017FB280070BD01256D42A9
:10597800F7E708B4024B9C46024BC01A08BC6047C4
:08598800395900104001000034
:105990009A2310B55B00C35C0400002B05D00E48B1
:1059A000FFF7CAFF0400200010BD07F0A7FA23008C
:1059B000FC335A6B002A0CD01A6B2834A45C1A6B87
:1059C0000132D2B21A635A6B013A5A6307F0ACFA49
:0C59D000E9E701246442F9E71018002008
:1059DC00802210B50400520000210CF061F8230065
:0E59EC000022FC335A6020009A60DA6010BD81
:1059FA0010B542680368086854100019D20701D527
:085A0A000268D358984710BD53
